:020000040800F2
:1000000030060020218300080D0400080F040008BA
:1000100013040008170400081B0400080000000077
:100020000000000000000000000000001F040008A5
:100030002104000800000000230400082504000833
:100040003B8300083B8300083B8300083B83000898
:100050003B8300083B8300083B8300083B83000888
:100060003B8300083B8300083B8300083B83000878
:100070003B8300083B8300083B8300083B83000868
:100080003B8300083B8300083B8300083B83000858
:100090003B8300083B8300083B8300083B83000848
:1000A0003B8300083B8300083B8300083B83000838
:1000B0002D04000847040008610400083B83000881
:1000C0003B8300083B8300083B8300083B83000818
:1000D0003B8300089B0400083B8300083B83000827
:1000E0003B8300083B8300083B8300083B830008F8
:1000F0003B8300083B8300083B8300083B830008E8
:100100003B8300083B8300087B0400083B83000816
:100110003B8300083B8300083B8300083B830008C7
:100120003B8300083B8300083B8300083B830008B7
:10013000DFF80CD00AF0A2FB004800474501000898
:10014000300600208AB000F0C4FA00F0E3F800F0B6
:10015000F5FA03F013FE07F001FD02F0DBFE00F0FC
:10016000CAFA00F077FB4FF4FA6000F020F94FF480
:10017000FA61062008F0BEF804E046A2002114202F
:1001800007F06CFD02F064FF0028F6D102F0F7FFE3
:1001900045A20021142007F061FD00F012FB78E079
:1001A00001A802F0CFFF002871D18DF824009DF83E
:1001B00005008C280CDD9DF80500B42808DA4120E4
:1001C0003E4988703EA20321002007F047FD5EE013
:1001D0009DF8050014280CDD9DF805003C2808DA80
:1001E00042203649887039A20321002007F036FDED
:1001F0004DE09DF8040014280CDD9DF804003C2817
:1002000008DA43202D49887033A20321002007F02B
:1002100025FD3CE09DF804008C280CDD9DF80400D1
:10022000B42808DA4420254988702EA20321002032
:1002300007F014FD2BE09DF8060014280CDD9DF856
:100240000600502808DA31201C49887028A20321B2
:10025000002007F003FD1AE09DF8060078280CDD69
:100260009DF80600B42808DA33201449887023A2C8
:100270000321002007F0F2FC09E053200F498870A9
:1002800000F0E8FA20A20321002007F0E7FC01F0CB
:1002900064FF85E74E524632344C3031204572724D
:1002A0006F7220200000000048455841504F442004
:1002B00049532052454144590000000000000020ED
:1002C000676F20666F7277617264000074616B659E
:1002D000206261636B2000007475726E206C65662D
:1002E000742000007475726E207269676874000073
:1002F0006C656674202020202020000072696768E9
:1003000074202020202000007374616E642020205F
:100310002020000030B538480068384AB0FBF2F1C0
:10032000B1F1807F01D301201DE021F07F40401E0C
:100330004FF0E022506150170F22002807DA130710
:100340001D0E2F4B00F00F04241F1D5503E0130753
:100350001C0E2C4B1C5400BF00204FF0E02290617B
:1003600007201061002008B100BFFEE74FF0E02039
:10037000006920F001004FF0E021086130BD224902
:1003800008604FF0E021096941F001014FF0E022DF
:10039000116100BF1C4909680029FBD14FF0E02121
:1003A000096921F001014FF0E022116170474FF41B
:1003B0007A714143144A11604FF0E021096941F01C
:1003C00001014FF0E022116100BF0F4909680029C7
:1003D000FBD14FF0E021096921F001014FF0E0224B
:1003E000116170470848006820B107480068401E46
:1003F0000549086070470000AC01002040420F0032
:1004000018ED00E000E400E008000020704700BFA5
:10041000FEE700BFFEE700BFFEE700BFFEE7704754
:100420007047704710B5FFF7DDFF10BD10B5012113
:10043000880709F072FC28B10121880709F07EFCC9
:1004400002F0FDFC10BD10B50121234809F065FC48
:1004500028B10121204809F071FC02F00DFD10BD0A
:1004600010B501211D4809F058FC28B101211B4895
:1004700009F064FC02F01DFD10BD10B50121184803
:1004800009F04BFC40B10121154809F057FC154813
:100490000068401C1349086010BD10B540F225519A
:1004A000114808F08FFCA8B120210F4808F0B4FCD7
:1004B0000D48001D00880D490D4A127888540C48DB
:1004C0000078401C0A49087008460078032801DBC0
:1004D0000020087010BD000000040040000800402B
:1004E000000C0040100000200038014000000020F7
:1004F0000C00002008B54FF4C06008F0A7FC1C20D9
:100500008DF8000000208DF8010001208DF8020018
:100510008DF80300684608F09EFC08BD08B54FF44E
:10052000C06008F093FC1D208DF8000000208DF8BD
:10053000010002208DF8020001208DF803006846BA
:1005400008F089FC08BD08B54FF4C06008F07EFCD7
:100550001E208DF8000000208DF8010003208DF88A
:10056000020001208DF80300684608F074FC08BD05
:1005700008B54FF4C06008F069FC32208DF8000027
:1005800000208DF8010004208DF8020001208DF874
:100590000300684608F05FFC08BD0EB5012108465F
:1005A00008F0F9F94FF0804008F0BEFC4FF4FA6013
:1005B000ADF804004720ADF800000020ADF80600BB
:1005C000ADF8020069464FF0804008F081FD01213E
:1005D000880709F09FFB01221146900709F0EFF808
:1005E00000214FF0804009F0CFF80EBD0EB501217B
:1005F000022008F0D0F94E4808F096FC4FF4FA605B
:10060000ADF804004720ADF800000020ADF806006A
:10061000ADF802006946464808F05AFD01214448F9
:1006200009F078FB01221146414809F0C8F8002181
:100630003F4809F0A9F80EBD0EB50121042008F0CD
:10064000AAF93C4808F070FC4FF4FA60ADF80400D9
:100650004720ADF800000020ADF80600ADF802001C
:100660006946344808F034FD0121324809F052FB54
:10067000012211462F4809F0A2F800212D4809F067
:1006800083F80EBD0EB50121082008F084F92A4830
:1006900008F04AFC41F61F40ADF8040040F2E73094
:1006A000ADF800000020ADF80600ADF80200694684
:1006B000214808F00DFD01211F4809F02BFB012204
:1006C00011461D4809F07BF800211B4809F05CF831
:1006D0000EBD10B5FFF70EFFFFF75FFFFFF71EFF20
:1006E000FFF784FFFFF72FFFFFF7A6FFFFF740FF9D
:1006F000FFF7C8FF10BD10B50121880709F044F8C5
:1007000001210B4809F040F801210A4809F03CF8A2
:1007100010BD10B500214FF0804009F035F80021E0
:10072000034809F031F80021024809F02DF810BD06
:100730000004004000080040000C004008B5012102
:10074000042008F01BF90121302008F017F90420DB
:10075000ADF8000010208DF8030003208DF8020092
:100760006946FD4807F04EFE0720ADF800006946D7
:10077000FA4807F047FE7020ADF800006946F748D8
:1007800007F040FE4FF4C850ADF800006946F3484A
:1007900007F038FE0720ADF800006946F04807F082
:1007A00031FE7020ADF800006946ED4807F02AFEE2
:1007B0004FF4E060ADF800006946E94807F022FE1A
:1007C00008BD10B50421E44807F0C9FE8021E548C2
:1007D00007F0C7FE6420FFF7EAFD0421DE4807F0BA
:1007E000C0FE8021DF4807F0BAFE6420FFF7DFFD7E
:1007F0000421D94807F0B3FE8021DA4807F0B1FEA2
:100800006420FFF7D4FD0421D34807F0AAFE80211D
:10081000D44807F0A4FE10BDD34B186059609A600D
:100820007047D14B186159619A617047CE4B18627D
:1008300059629A627047CC4B186359639A63704748
:10084000C94B186459649A647047C74B1865596559
:100850009A65704700B50020C4490870C449087003
:10086000C4490870C4490870C4490870C449087074
:10087000C44B9A6859681868FFF7CEFFC14B5A6994
:100880001969D868FFF7CDFFBE4B1A6AD969986914
:10089000FFF7CCFFBB4BDA6A996A586AFFF7CBFFC8
:1008A000B84B9A6B596B186BFFF7CAFFB54B5A6C74
:1008B000196CD86BFFF7C9FF00BD0EB5AF480078C3
:1008C0000A286FD2DFE800F0056FD8FDFCFBFAF9CB
:1008D000F8F7AC488068A0F5C8700290A948406855
:1008E000A0F5FA700190A7480068C8380090DDE9CB
:1008F0000112FFF791FFA348406900F5C87002900C
:10090000A048006900F5FA7001909E48C068C830A0
:100910000090DDE90112FFF784FF9A48006A00F5B4
:10092000C87002909748C06900F5FA700190954828
:1009300080690090DDE90112FFF778FF9148C06AF5
:1009400000F5C87002908F48806A00F5FA70019037
:100950008C48406A0090DDE90112FFF76CFF89487E
:10096000806BA0F5C87002908648406BA0F5FA70C5
:1009700001908448006B0090DDE90112FFF760FFF1
:100980008048406CA0F5C87002907E48006CA0F5CD
:10099000FA7001907B48C06B0090DDE90112FFF70F
:1009A00054FFCFE3CDE377488068A0F5C87002908C
:1009B00074484068A0F59670019072480068C83885
:1009C0000090DDE90112FFF727FF6E48006A00F58D
:1009D000C87002906B48C06900F596700190694834
:1009E00080690090DDE90112FFF720FF6548806B08
:1009F000A0F5C87002906348406BA0F59670019016
:100A00006048006B0090DDE90112FFF719FF5D48B7
:100A1000406900F5C87002905A48006900F5FA7004
:100A200001905848C068C8300090DDE90112FFF716
:100A3000F8FE5448C06A00F5C87002905148806AB8
:100A400000F5FA7001904F48406A0090DDE901120C
:100A5000FFF7F1FE4B48406CA0F5C8700290494882
:100A6000006CA0F5FA7001904648C06B0090DDE97B
:100A70000112FFF7EAFE65E342488068A0F548707E
:100A8000029040484068A0F5967001903D4800688B
:100A9000C8380090DDE90112FFF7BEFE3948006A50
:100AA000C83002903748C06900F5C87001903548D9
:100AB0008069009006E0DBE271E206E29EE134E14B
:100AC000CAE061E0DDE90112FFF7B0FE2D48806B5E
:100AD000A0F5487002902B48406BA0F596700190ED
:100AE0002848006B0090DDE90112FFF7A9FE2548B8
:100AF000406900F5C87002902248006900F5FA705C
:100B000001902048C068C8300090DDE90112FFF76D
:100B100088FE1C48C06A00F5C87002901948806AB7
:100B200000F5FA7001901748406A0090DDE9011263
:100B3000FFF781FE1348406CA0F5C8700290114881
:100B4000006CA0F5FA7001900E48C06B0090DDE9D2
:100B50000112FFF77AFEF5E200140140000801409F
:100B600000100140000C0140740000206D000020C6
:100B70006C0000206B0000206E0000207000002040
:100B80006F00002018000020FE488068A0F5487023
:100B90000290FC484068A0F516700190F948006882
:100BA000C8380090DDE90112FFF736FEF548006A0B
:100BB000C8300290F348C06900F52F700190F148E9
:100BC00080690090DDE90112FFF730FEED48806B8F
:100BD000A0F548700290EB48406BA0F516700190AC
:100BE000E848006B0090DDE90112FFF729FEE548B7
:100BF000406900F5C8700290E248006900F5FA709B
:100C00000190E048C068C8300090DDE90112FFF7AC
:100C100008FEDC48C06A00F5C8700290D948806AB6
:100C200000F5FA700190D748406A0090DDE90112A2
:100C3000FFF701FED348406CA0F5C8700290D14880
:100C4000006CA0F5FA700190CE48C06B0090DDE911
:100C50000112FFF7FAFD75E2CA488068A0F5C87076
:100C60000290C8484068A0F5FA700190C548006835
:100C7000C8380090DDE90112FFF7CEFDC148006AD7
:100C800000F5C8700290BF48C06900F51670019069
:100C9000BC4880690090DDE90112FFF7C7FDB94843
:100CA000806BA0F5C8700290B648406BA0F5FA7052
:100CB0000190B448006B0090DDE90112FFF7C0FD20
:100CC000B048406900F5C8700290AE48006900F570
:100CD000FA700190AB48C068C8300090DDE901129D
:100CE000FFF79FFDA748C06A00F5C8700290A548AD
:100CF000806A00F5FA700190A248406A0090DDE930
:100D00000112FFF798FD9F48406CA0F5C870029053
:100D10009C48006CA0F5FA7001909A48C06B009056
:100D2000DDE90112FFF791FD0CE296488068A0F51D
:100D3000C870029093484068A0F5FA7001909148FD
:100D40000068C8380090DDE90112FFF765FD8D48A5
:100D5000006A00F5C87002908A48C06900F5FA7010
:100D60000190884880690090DDE90112FFF75EFD7F
:100D70008448806BA0F5C87002908248406BA0F553
:100D8000FA7001907F48006B0090DDE90112FFF7D7
:100D900057FD7C48406900F5C870029079480069A9
:100DA00000F5967001907748C068C8300090DDE982
:100DB0000112FFF736FD7348C06A00F5C870029053
:100DC0007048806A00F5967001906E48406A009005
:100DD000DDE90112FFF72FFD6A48406CA0F5C870ED
:100DE00002906848006CA0F5967001906548C06B51
:100DF0000090DDE90112FFF728FDA3E1614880685A
:100E0000A0F5C87002905F484068A0F5FA700190A4
:100E10005C480068C8380090DDE90112FFF7FCFC6F
:100E20005848006A00F5C87002905648C06900F53D
:100E3000FA700190534880690090DDE90112FFF7D4
:100E4000F5FC5048806BA0F5C87002904D48406B8F
:100E5000A0F5FA7001904B48006B0090DDE901129B
:100E6000FFF7EEFC47484069C830029045480069EA
:100E700000F5967001904348C068C8300090DDE9E5
:100E80000112FFF7CEFC3F48C06AC83002903D48CF
:100E9000806A00F5967001903A48406A0090DDE95A
:100EA0000112FFF7C8FC3748406CA0F5167002909D
:100EB0003448006CA0F5967001903248C06B0090E9
:100EC000DDE90112FFF7C1FC3CE12E488068A0F586
:100ED000C87002902B484068A0F5FA70019029482C
:100EE0000068C8380090DDE90112FFF795FC25483D
:100EF000006A00F5C87002902248C06900F5FA70D7
:100F00000190204880690090DDE90112FFF78EFC16
:100F10001C48806BA0F5C87002901A48406BA0F581
:100F2000FA7001901748006B0090DDE90112FFF79D
:100F300087FC14484069C83002901248006900F5E7
:100F4000167001900F48C068C8300090DDE90112AA
:100F5000FFF767FC0B48C06AC83002900948806AF6
:100F600000F5167001900748406A0090DDE9011213
:100F7000FFF761FC0348406CA0F516700290014831
:100F8000006C01E018000020A0F516700190FE48EA
:100F9000C06B0090DDE90112FFF757FCD2E0FA4880
:100FA0008068A0F5C8700290F7484068A0F5FA7014
:100FB0000190F5480068C8380090DDE90112FFF79C
:100FC0002BFCF148006A00F5C8700290EE48C06939
:100FD00000F5FA700190EC4880690090DDE901129B
:100FE000FFF724FCE848806BA0F5C8700290E64843
:100FF000406BA0F5FA700190E348006B0090DDE9CA
:101000000112FFF71DFCE048406900F5C87002902E
:10101000DD48006900F516700190DB48C068C830F3
:101020000090DDE90112FFF7FCFBD748C06A00F52C
:10103000C8700290D448806A00F516700190D248BA
:10104000406A0090DDE90112FFF7F5FBCE48406CE5
:10105000A0F5FA700290CC48006CA0F516700190D3
:10106000C948C06B0090DDE90112FFF7EEFB69E0B3
:10107000C5488068A0F5C8700290C3484068A0F5D4
:10108000FA700190C0480068C8380090DDE901128C
:10109000FFF7C2FBBC48406900F5C8700290BA482F
:1010A000006900F5FA700190B748C068C830009038
:1010B000DDE90112FFF7B5FBB348006A00F5C8701F
:1010C0000290B148C06900F5FA700190AE4880699D
:1010D0000090DDE90112FFF7A9FBAB48C06A00F5FB
:1010E000C8700290A848806A00F5FA700190A6487E
:1010F000406A0090DDE90112FFF79DFBA248806B7A
:10110000A0F5C8700290A048406BA0F5FA7001905D
:101110009D48006B0090DDE90112FFF791FB9A48B2
:10112000406CA0F5C87002909748006CA0F5FA706A
:1011300001909548C06B0090DDE90112FFF785FB37
:1011400000E000BF00BF0EBD0EB5904800780A2831
:101150006FD2DFE800F0056FD8FDFCFBFAF9F8F775
:1011600089488068A0F5C870029087484068A0F55B
:10117000FA70019084480068C8380090DDE90112D7
:10118000FFF74AFB8048406900F5C87002907E482E
:10119000006900F5FA7001907B48C068C830009083
:1011A000DDE90112FFF73DFB7748006A00F5C870E2
:1011B00002907548C06900F5FA7001907248806924
:1011C0000090DDE90112FFF731FB6F48C06A00F5BE
:1011D000C87002906C48806A00F5FA7001906A4805
:1011E000406A0090DDE90112FFF725FB6648806B3D
:1011F000A0F5C87002906448406BA0F5FA700190A9
:101200006148006B0090DDE90112FFF719FB5E48B1
:10121000406CA0F5C87002905B48006CA0F5FA70B5
:1012200001905948C06B0090DDE90112FFF70DFBFA
:10123000B9E3B7E354488068A0F5C87002905248FB
:101240004068A0F5967001904F480068C83800903B
:10125000DDE90112FFF7E0FA4B48006A00F5C870BB
:1012600002904948C06900F596700190464880692F
:101270000090DDE90112FFF7D9FA4348806BA0F531
:10128000C87002904048406BA0F5967001903E48AF
:10129000006B0090DDE90112FFF7D2FA3A4840698D
:1012A00000F5C87002903848006900F5FA700190A6
:1012B0003548C068C8300090DDE90112FFF7B1FA87
:1012C0003148C06A00F5C87002902F48806A00F566
:1012D000FA7001902C48406A0090DDE90112FFF796
:1012E000AAFA2948406CA0F5C87002902648006C04
:1012F000A0F5FA7001902448C06B0090DDE901125E
:10130000FFF7A3FA4FE320488068643002901E483C
:101310004068A0F5967001901B480068C83800909E
:10132000DDE90112FFF778FA1748006A00F5167038
:1013300002901548C06900F5C87001901248806994
:10134000009006E0C5E25BE2EFE186E11CE1B3E07C
:101350004CE0DDE90112FFF769FA0B48806B02905F
:101360000948406BA0F5967001900748006B00900B
:10137000DDE90112FFF764FA0348406900F5C8701F
:1013800002900148006903E0180000206F0000206F
:1013900000F5FA700190FE48C068C8300090DDE9A1
:1013A0000112FFF73EFAFA48C06A00F5C8700290D1
:1013B000F748806A00F5FA700190F548406A00909D
:1013C000DDE90112FFF737FAF148406CA0F5C8706B
:1013D0000290EF48006CA0F5FA700190EC48C06BE9
:1013E0000090DDE90112FFF730FADCE2E84880689E
:1013F00064300290E6484068A0F516700190E44819
:101400000068C8380090DDE90112FFF705FAE048EE
:10141000006A00F516700290DD48C06900F52F7073
:101420000190DB4880690090DDE90112FFF7FEF9C9
:10143000D748806B0290D648406BA0F5167001909B
:10144000D348006B0090DDE90112FFF7F9F9D048AD
:10145000406900F5C8700290CD48006900F5FA7047
:101460000190CB48C068C8300090DDE90112FFF759
:10147000D8F9C748C06A00F5C8700290C448806AAD
:1014800000F5FA700190C248406A0090DDE901124F
:10149000FFF7D1F9BE48406CA0F5C8700290BC4877
:1014A000006CA0F5FA700190B948C06B0090DDE9BE
:1014B0000112FFF7CAF976E2B5488068A0F5C87056
:1014C0000290B3484068A0F5FA700190B0480068F7
:1014D000C8380090DDE90112FFF79EF9AC48006AB8
:1014E000C8300290AA48C06900F516700190A8485B
:1014F00080690090DDE90112FFF798F9A448806B3C
:10150000A0F5C8700290A248406BA0F5FA70019057
:101510009F48006B0090DDE90112FFF791F99C48AC
:10152000406900F5C87002909948006900F5FA70AA
:1015300001909748C068C8300090DDE90112FFF7BC
:1015400070F99348C06A00F5C87002909048806AAC
:1015500000F5FA7001908E48406A0090DDE90112B2
:10156000FFF769F98A48406CA0F5C8700290884876
:10157000006CA0F5FA7001908548C06B0090DDE921
:101580000112FFF762F90EE281488068A0F5C87089
:1015900002907F484068A0F5FA7001907C4800688E
:1015A000C8380090DDE90112FFF736F97848006A83
:1015B00000F5C87002907648C06900F5FA70019095
:1015C000734880690090DDE90112FFF72FF9704838
:1015D000806BA0F5C87002906D48406BA0F5FA7062
:1015E00001906B48006B0090DDE90112FFF728F9CC
:1015F0006748406900F5C87002906548006900F5C9
:10160000967001906248C068C8300090DDE9011210
:10161000FFF707F95E48C06A00F5C87002905C48A1
:10162000806A00F5967001905948406A0090DDE9A3
:101630000112FFF700F95648406CA0F5C8700290FF
:101640005348006CA0F5967001905148C06B009013
:10165000DDE90112FFF7F9F8A5E14D488068A0F532
:10166000C87002904A484068A0F5FA700190484856
:101670000068C8380090DDE90112FFF7CDF8444852
:10168000006A00F5C87002904148C06900F5FA7020
:1016900001903F4880690090DDE90112FFF7C6F82C
:1016A0003B48806BA0F5C87002903948406BA0F5AC
:1016B000FA7001903648006B0090DDE90112FFF7E7
:1016C000BFF83348406900F5167002903048006951
:1016D00000F5967001902E48C068C8300090DDE992
:1016E0000112FFF79EF82A48C06A00F516700290B2
:1016F0002748806A00F5967001902548406A00905E
:10170000DDE90112FFF797F82148406C6438029038
:101710001F48006CA0F5967001901D48C06B0090AA
:10172000DDE90112FFF791F83DE119488068A0F565
:10173000C870029016484068A0F5FA7001901448ED
:101740000068C8380090DDE90112FFF765F810481D
:10175000006A00F5C87002900D48C06900F5FA7083
:1017600001900B4880690090DDE90112FFF75EF8F7
:101770000748806BA0F5C87002900548406BA0F543
:10178000FA7001900248006B0090DDE9011201E05F
:1017900018000020FFF754F8FC48406900F5167067
:1017A0000290FA48006900F516700190F748C06889
:1017B000C8300090DDE90112FFF733F8F348C06A42
:1017C00000F516700290F148806A00F516700190DD
:1017D000EE48406A0090DDE90112FFF72CF8EB4873
:1017E000406C64380290E948006CA0F516700190D6
:1017F000E648C06B0090DDE90112FFF726F8D2E061
:10180000E2488068A0F5C8700290E0484068A0F502
:10181000FA700190DD480068C8380090DDE90112D7
:10182000FEF7FAFFD948006A00F5C8700290D74861
:10183000C06900F5FA700190D44880690090DDE934
:101840000112FEF7F3FFD148806BA0F5C87002903B
:10185000CE48406BA0F5FA700190CC48006B009028
:10186000DDE90112FEF7ECFFC848406900F5C870D9
:101870000290C648006900F516700190C348C06820
:10188000C8300090DDE90112FEF7CBFFBF48C06A07
:1018900000F5C8700290BD48806A00F5167001908E
:1018A000BA48406A0090DDE90112FEF7C4FFB7486C
:1018B000406CA0F5FA700290B448006CA0F5167068
:1018C0000190B248C06B0090DDE90112FEF7BDFF48
:1018D00069E0AE488068A0F5C8700290AB484068E7
:1018E000A0F5FA700190A9480068C8380090DDE9B9
:1018F0000112FEF791FFA548406900F5C8700290FB
:10190000A248006900F5FA700190A048C068C8308C
:101910000090DDE90112FEF784FF9C48006A00F5A3
:10192000C87002909948C06900F5FA700190974814
:1019300080690090DDE90112FEF778FF9348C06AE4
:1019400000F5C87002909148806A00F5FA70019025
:101950008E48406A0090DDE90112FEF76CFF8B486B
:10196000806BA0F5C87002908848406BA0F5FA70B3
:1019700001908648006B0090DDE90112FEF760FFE0
:101980008248406CA0F5C87002908048006CA0F5B9
:10199000FA7001907D48C06B0090DDE90112FEF7FE
:1019A00054FF00E000BF00BF0EBD00B578480078CE
:1019B00006287CD2DFE800F00328536C93D0734BE9
:1019C0009B68A3F1C802714B5B6803F1C8016F4BC0
:1019D0001868FEF721FF6D4B1B6A03F1C8026B4BC1
:1019E000DB69A3F1C801694B9869FEF71FFF674BDC
:1019F0009B6BA3F1C802654B5B6B03F1C801634BA2
:101A0000186BFEF71DFFC6E0604B9B68A3F1C80290
:101A10005E4B5B6803F1C8015C4B1B68A3F1C80017
:101A2000FEF7FAFE594B1B6A03F1C802574BDB69FC
:101A3000A3F1C801554B9B6903F1C800FEF7F6FE00
:101A4000524B9B6BA3F1C802504B5B6B03F1C80177
:101A50004E4B1B6B03F1C800FEF7F2FE9BE04B4BB5
:101A60009A6859681B68A3F1C800FEF7D5FE474B7A
:101A70001A6AD9699B6903F1C800FEF7D7FE434B88
:101A80009A6B596B1B6B03F1C800FEF7D9FE82E01D
:101A90003E4B5B6903F1C8023C4B1B69A3F1C801D3
:101AA0003A4BD868FEF7BDFE384BDB6A00E071E0C8
:101AB00003F1C802354B9B6AA3F1C801334B586A46
:101AC000FEF7B9FE314B5B6CA3F1C8022F4B1B6CC8
:101AD00003F1C8012D4BD86BFEF7B7FE5BE02B4B33
:101AE0005B6903F1C802294B1B69A3F1C801274BAD
:101AF000DB6803F1C800FEF794FE244BDB6A03F1B8
:101B0000C802224B9B6AA3F1C801204B5B6AA3F178
:101B1000C800FEF790FE1D4B5B6CA3F1C8021B4B87
:101B20001B6C03F1C801194BDB6B03F1C800FEF716
:101B30008CFE164B9A6859681868FEF76DFE134BB9
:101B40001A6AD9699869FEF771FE104B9A6B596B46
:101B5000186BFEF775FE1EE00C4B5A691969DB68BD
:101B600003F1C800FEF75DFE084BDA6A996A5B6A0A
:101B7000A3F1C800FEF75FFE044B5A6C196CDB6BD7
:101B800003F1C800FEF761FE05E000001800002028
:101B90006E00002000BF00BF00BD00B5FE48007809
:101BA00006287CD2DFE800F00328536C93D0FB4B6F
:101BB0009B68A3F1C802F94B5B6803F1C801F74BBE
:101BC0001868FEF729FEF54B1B6A03F1C802F34BB8
:101BD000DB69A3F1C801F14B9869FEF727FEEF4BD3
:101BE0009B6BA3F1C802ED4B5B6B03F1C801EB4BA0
:101BF000186BFEF725FEC1E0E84B9B68A3F1C80215
:101C0000E64B5B6803F1C801E44B1B6803F1C800B5
:101C1000FEF702FEE14B1B6A03F1C802DF4BDB69F2
:101C2000A3F1C801DD4B9B69A3F1C800FEF7FEFDDF
:101C3000DA4B9B6BA3F1C802D84B5B6B03F1C80175
:101C4000D64B1B6BA3F1C800FEF7FAFD96E0D34B11
:101C50009A6859681B6803F1C800FEF7DDFDCF4B99
:101C60001A6AD9699B69A3F1C800FEF7DFFDCB4B67
:101C70009A6B596B1B6BA3F1C800FEF7E1FD7DE089
:101C8000C64B5B6903F1C802C44B1B69A3F1C801D1
:101C9000C24BD868FEF7C5FDC04BDB6A00E06CE0C4
:101CA00003F1C802BD4B9B6AA3F1C801BB4B586A44
:101CB000FEF7C1FDB94B5B6CA3F1C802B74B1B6CBF
:101CC00003F1C801B54BD86BFEF7BFFD56E0B34B2F
:101CD0005B6903F1C802B14B1B69A3F1C801AF4BAB
:101CE000DB68A3F1C800FEF79CFDAC4BDB6A03F197
:101CF000C802AA4B9B6AA3F1C801A84B5B6A03F117
:101D0000C800FEF798FDA54B5B6CA3F1C802A34B7E
:101D10001B6C03F1C801A14BDB6BA3F1C800FEF7FC
:101D200094FD9E4B9A6859681868FEF775FD9B4BA9
:101D30001A6AD9699869FEF779FD984B9A6B596BC5
:101D4000186BFEF77DFD19E0944B5A691969DB6841
:101D5000A3F1C800FEF765FD904BDA6A996A5B6AE9
:101D600003F1C800FEF767FD8C4B5A6C196CDB6BF6
:101D7000A3F1C800FEF769FD00E000BF00BF00BD91
:101D800000B58748007806287DD2DFE800F0D6034A
:101D9000405980BD814B9B68A3F1C8027F4B5B68B3
:101DA00003F1C8017D4B1B6803F1C800FEF734FD49
:101DB0007A4B1B6A03F1C802784BDB69A3F1C801B7
:101DC000764B9B69A3F1C800FEF730FD734B9B6B0C
:101DD000A3F1C802714B5B6B03F1C8016F4B1B6B26
:101DE00003F1C800FEF72CFD6C4B5A691969D868DD
:101DF000FEF717FD694BDA6A996A586AFEF71BFD10
:101E0000664B5A6C196CD86BFEF71FFD96E0634B5E
:101E10009A6859681B6803F1C800FEF7FDFC5F4B28
:101E20001A6AD9699B69A3F1C800FEF7FFFC5B4BF6
:101E30009A6B596B1B6B03F1C800FEF701FD7DE047
:101E4000564B5B6903F1C802544B1B69A3F1C801EF
:101E5000524BD868FEF7E5FC504BDB6A03F1C80231
:101E60004E4B9B6AA3F1C8014C4B586AFEF7E3FC4A
:101E70004A4B5B6CA3F1C802484B1B6C03F1C801D1
:101E8000464BD86B00E058E0FEF7DFFC56E0434BD2
:101E90005B6903F1C802414B1B69A3F1C8013F4BC9
:101EA000DB68A3F1C800FEF7BCFC3C4BDB6A03F126
:101EB000C8023A4B9B6AA3F1C801384B5B6AA3F195
:101EC000C800FEF7B8FC354B5B6CA3F1C802334B7E
:101ED0001B6C03F1C801314BDB6B03F1C800FEF74B
:101EE000B4FC2E4B9A6859681868FEF795FC2B4B8A
:101EF0001A6AD9699869FEF799FC284B9A6B596B55
:101F0000186BFEF79DFC19E0244B5A691969DB68D0
:101F1000A3F1C800FEF785FC204BDA6A996A5B6A78
:101F2000A3F1C800FEF787FC1C4B5A6C196CDB6BE5
:101F300003F1C800FEF789FC00E000BF00BF00BD50
:101F400000B51848007806286FD2DFE800F00331AA
:101F50006F88ADEA114B9B68A3F1C8020F4B5B6819
:101F600003F1C8010D4B1868FEF756FC0B4B1B6ABA
:101F700003F1C802094BDB69A3F1C801074B98695B
:101F8000FEF754FC054B9B6BA3F1C802034B5B6B44
:101F900003F1C801014B07E06D000020180000208C
:101FA0006C0000206B000020186BFEF749FCD2E0AB
:101FB000FD4B9B68A3F1C802FB4B5B6803F1C801B2
:101FC000F94B1B68A3F1C800FEF726FCF64B1B6A11
:101FD00003F1C802F44BDB69A3F1C801F24B9B6922
:101FE00003F1C800FEF722FCEF4B9B6BA3F1C80284
:101FF000ED4B5B6B03F1C801EB4B1B6BA3F1C8000E
:10200000FEF71EFCE84B5A691969D868FEF709FC0F
:10201000E54BDA6A996A586AFEF70DFCE24B5A6C96
:10202000196CD86BFEF711FC95E093E0DE4B9A68D3
:1020300059681B68A3F1C800FEF7EEFBDA4B1A6A79
:10204000D9699B6903F1C800FEF7F0FBD64B9A6B88
:10205000596B1B6BA3F1C800FEF7F2FB7BE0D24B80
:102060005B6903F1C802D04B1B69A3F1C801CE4BD9
:10207000D868FEF7D6FBCC4BDB6A03F1C802CA4B2B
:102080009B6AA3F1C801C84B586AFEF7D4FBC64B44
:102090005B6CA3F1C802C44B1B6C03F1C801C24BBB
:1020A000D86BFEF7D2FB56E0BF4B5B6903F1C80269
:1020B000BD4B1B69A3F1C801BB4BDB6803F1C80032
:1020C000FEF7AFFBB84BDB6A03F1C802B64B9B6A65
:1020D000A3F1C801B44B5B6A03F1C800FEF7ABFB88
:1020E000B14B5B6CA3F1C802AF4B1B6C03F1C80191
:1020F000AD4BDB6BA3F1C800FEF7A7FBAA4B9A68B8
:1021000059681868FEF788FBA74B1A6AD96998695D
:10211000FEF78CFBA44B9A6B596B186BFEF790FB88
:1021200019E0A14B5A691969DB6803F1C800FEF791
:1021300078FB9D4BDA6A996A5B6A03F1C800FEF787
:102140007AFB994B5A6C196CDB6BA3F1C800FEF754
:102150007CFB00E000BF00BF00BD00B59348807865
:1021600041280ED006DC31281AD032281ED0332860
:1021700026D11FE0422807D0432808D044281FD189
:102180000BE0FFF7DDFE1EE0FFF7FAFD1BE000208D
:1021900087490870FFF701FD15E0FFF706FC12E024
:1021A000002083490870FEF7CFFF0CE00120804932
:1021B000087008E000207E490870FEF77EFB02E010
:1021C000FEF748FB00BF00BF00BD7848807841287B
:1021D0000ED006DC31283BD0322845D0332853D1ED
:1021E00046E0422810D043281AD044284CD123E09E
:1021F00070480078401C6F49087008460078052830
:1022000001DD0020087040E06B480078401C6A49FE
:10221000087008460078052801DD0020087034E0C9
:1022200066480078401C6549087008460078052813
:1022300001DD0020087028E061480078401C6049FA
:10224000087008460078052801DD002008701CE0B1
:102250005C480078401C5B490870084600780928F3
:1022600001DD0120087010E00120514908700CE0E8
:1022700055480078401C54490870084600780928E1
:1022800001DD0120087000E000BF00BF704710B5FD
:1022900000244E4800684E490968884206D144F03F
:1022A00001044A4800684B49086000E000244748A0
:1022B000406847494968884206D144F002044348CF
:1022C00040684449486000E0002440488068404934
:1022D0008968884206D144F004043C4880683D493E
:1022E000886000E000243948C0683949C9688842DC
:1022F00006D144F008043548C0683649C86000E09B
:1023000000243248006932490969884206D144F004
:1023100010042E4800692F49086100E000242B4872
:1023200040692B494969884206D144F02004274876
:1023300040692849486100E0002424488069244914
:102340008969884206D144F04004204880692149C7
:10235000886100E000241D48C0691D49C9698842A0
:1023600006D144F080041948C0691A49C86100E0E8
:102370000024FF2C03D101201749087002E000203F
:102380001549087014480078144909780840144920
:1023900009780840134908700846007818B1FFF71B
:1023A00014FFFFF7DAFE10BD180000200000002027
:1023B0006A0000206B0000206C0000206D000020EF
:1023C0006E0000206F00002070000020D40000206C
:1023D0007400002034010020670000206800002005
:1023E000690000206600002010B50024FE48006A45
:1023F000FE49096A884206D144F00104FA48006A9D
:10240000FB49086200E00024F748406AF749496A3E
:10241000884206D144F00204F348406AF449486215
:1024200000E00024F048806AF049896A884206D1B9
:1024300044F00404EC48806AED49886200E000241E
:10244000E948C06AE949C96A884206D144F00804EB
:10245000E548C06AE649C86200E00024E248006B33
:10246000E249096B884206D144F01004DE48006B53
:10247000DF49086300E00024DB48406BDB49496B1F
:10248000884206D144F02004D748406BD8494863BD
:1024900000E00024D448806BD449896B884206D17F
:1024A00044F04004D048806BD149886300E00024A8
:1024B000CD48C06BCD49C96B884206D144F0800439
:1024C000C948C06BCA49C86300E00024FF2C03D18F
:1024D0000120C849087002E00020C6490870C648BB
:1024E0000078C44909780840C44909780840C449BB
:1024F00008700846007818B1FFF767FEFFF72DFE59
:1025000010BD10B50024B848006CB849096C884269
:1025100006D144F00104B448006CB549086400E0F9
:102520000024B148406CB149496C884206D144F05E
:102530000204AD48406CAE49486400E00024AA485B
:10254000806CAA49896C884206D144F00404A648EC
:10255000806CA749886400E00024A348C06CA349AC
:10256000C96C884206D144F008049F48C06CA04959
:10257000C86400E000249C48006D9C49096D8842B5
:1025800006D144F010049848006D9949086500E0B0
:1025900000249548406D9549496D884206D144F024
:1025A00020049148406D9249486500E000248E481F
:1025B000806D8E49896D884206D144F040048A4876
:1025C000806D8B49886500E000248748C06D87498D
:1025D000C96D884206D144F080048348C06D8449A7
:1025E000C86500E00024FF2C03D101208349087056
:1025F00002E00020814908707F4800787D49097811
:1026000008407E49097808407D49087008460078EE
:1026100018B1FFF7DAFDFFF7A0FD10BD7349096897
:10262000734A1268881AC11700EB91718910754AB4
:1026300011606E4949686E4A5268881AC11700EBEA
:10264000917189106F4A516068498968684A926837
:10265000881AC11700EB917189106A4A9160634929
:10266000C968634AD268881AC11700EB9171891052
:10267000644AD1605D4909695D4A1269881AC117C7
:1026800000EB917189105F4A116158494969584AB4
:102690005269881AC11700EB91718910594A51612A
:1026A00052498969524A9269881AC11700EB91719F
:1026B0008910544A91614D49C9694D4AD269881AB5
:1026C000C11700EB917189104E4AD1611046006824
:1026D000454909680844444908601046406849680B
:1026E00008444149486010468068896808443E496A
:1026F00088601046C068C96808443B49C8601046F5
:102700000069096908443849086110464069496907
:10271000084435494861104680698969084432494E
:1027200088611046C069C96908442F49C86170476B
:102730002E49096A2E4A126A881AC11700EB917154
:102740008910304A11622949496A294A526A881A0D
:10275000C11700EB917189102A4A51622349896A95
:10276000234A926A881AC11700EB91718910254A91
:1027700091621E49C96A1E4AD26A881AC11700EBC3
:10278000917189101F4AD1621849096B184A126B5E
:10279000881AC11700EB917189101A4A1163134905
:1027A000496B134A526B881AC11700EB917189105B
:1027B000144A51630D49896B0D4A926B881AC117EF
:1027C00000EB917189100F4A91630849C96B084A5F
:1027D000D26B881AC11700EB91718910094AD16335
:1027E0001046006A00490FE0D40000207400002069
:1027F00034010020680000206700002069000020EC
:1028000066000020C0010020096A0844FA490862F5
:102810001046406A496A0844F74948621046806A8F
:10282000896A0844F44988621046C06AC96A084443
:10283000F149C8621046006B096B0844EE49086311
:102840001046406B496B0844EB4948631046806B67
:10285000896B0844E84988631046C06BC96B08441B
:10286000E549C8637047E549096CE54A126C881A66
:10287000C11700EB91718910E24A1164DF49496C7C
:10288000DF4A526C881AC11700EB91718910DD4A3A
:102890005164DA49896CDA4A926C881AC11700EBE4
:1028A00091718910D74A9164D449C96CD44AD26CC9
:1028B000881AC11700EB91718910D24AD164CF49AF
:1028C000096DCF4A126D881AC11700EB91718910FA
:1028D000CC4A1165C949496DC94A526D881AC11758
:1028E00000EB91718910C74A5165C449896DC44A8A
:1028F000926D881AC11700EB91718910C14A9165D8
:10290000BE49C96DBE4AD26D881AC11700EB9171DC
:102910008910BC4AD1651046006CB749096C08445F
:10292000B54908641046406C496C0844B249486493
:102930001046806C896C0844AF4988641046C06CAE
:10294000C96C0844AC49C8641046006D096D084460
:10295000A94908651046406D496D0844A649486577
:102960001046806D896D0844A34988651046C06D86
:10297000C96D0844A049C865704710B5A2480078E1
:10298000112813D2DFE800F0BC09131F29353F4B93
:1029900055616B77818D97A3AD00974800884FF004
:1029A000804188850121994805F0D9FDA8E0924829
:1029B000008840F6C411081A090788850121934848
:1029C00005F0CFFD9CE08C4880884FF080418885E1
:1029D00002218E4805F0C3FD92E08748808840F6CA
:1029E000C411081A090788850221884805F0B9FD35
:1029F00086E0814800894FF0804188850421834822
:102A000005F0ADFD7CE07C48008940F6C411081A51
:102A10000907888504217D4805F0A3FD70E076480C
:102A200080894FF0804188850821784805F097FD1E
:102A300066E07148808940F6C411081A0907888544
:102A40000821724805F08DFD5AE06B48008A4FF06E
:102A50008041888510216D4805F081FD50E0664871
:102A6000008A40F6C411081A0907888510216748B2
:102A700005F077FD44E06048808A4FF0804188850A
:102A80002021624805F06BFD3AE05B48808A40F601
:102A9000C411081A0907888520215C4805F061FDEA
:102AA0002EE05548008B4FF08041888540215748E3
:102AB00005F055FD24E05048008B40F6C411081A7B
:102AC000090788854021514805F04BFD18E04A4828
:102AD000808B4FF08041888580214C4805F03FFD78
:102AE0000EE04548808B40F6C411081A0907888516
:102AF0008021464805F035FD00204349087000BF9D
:102B000000BF10BD10B542480078112812D2DFE88E
:102B100000F0C709121E27333C48515D66858E9A26
:102B2000A3AFB8003448008C3A490880891537486B
:102B300005F015FDB4E03048008C40F6C411081AC9
:102B4000344908808915314805F00BFDA8E02A4872
:102B5000808C30490880C9142C4805F000FD9FE0A6
:102B60002548808C40F6C411081A2A490880C914E7
:102B7000264805F0F6FC93E01F48008D25490880A3
:102B80008914224805F0EBFC8AE01B48008D40F6D2
:102B9000C411081A1F49088089141C4805F0E1FC7B
:102BA0007EE01548808D1B490880C913174805F041
:102BB000D6FC75E01048808D40F6C411081A1549FE
:102BC0000880C913114805F0CCFC69E00A48008E62
:102BD000104908800121104805F0C1FC60E006485A
:102BE000008E40F6C411081A0A49088001210A48DB
:102BF00005F0B7FC54E00000D40000207400002071
:102C000034010020C00100206300002000080140C2
:102C1000640000202C04004000100140B348808E66
:102C2000B34908800221B34805F099FC38E0AF4869
:102C3000808E40F6C411081AAD4908800221AD48C3
:102C400005F08FFC2CE0A948008FA94908800421D9
:102C5000A84805F084FC23E0A448008F40F6C41186
:102C6000081AA34908800421A24805F07AFC17E05D
:102C70009E48808F9E49088008219E4805F06FFC81
:102C80000EE09A48808F40F6C411081A98490880CF
:102C90000821984805F065FC00209749087000BF9E
:102CA00000BF10BD10B595480078112813D2DFE899
:102CB00000F0C40913202A37414E58656F7C869373
:102CC0009DAAB4008948B0F840008D4908801021C1
:102CD000884805F044FCB0E08448B0F8400040F675
:102CE000C411081A864908801021824805F039FC71
:102CF000A3E07E48B0F844008149088020217D4847
:102D000005F02DFC99E07948B0F8440040F6C41174
:102D1000081A7B4908802021764805F022FC8CE0C7
:102D20007248B0F84800764908804021714805F0A3
:102D300016FC82E06D48B0F8480040F6C411081A4D
:102D40006F49088040216B4805F00BFC75E067482F
:102D5000B0F84C006A4908808021664805F0FFFB06
:102D60006BE06248B0F84C0040F6C411081A6449A0
:102D7000088080215F4805F0F4FB5EE05B48B0F816
:102D800050005F49088089155A4805F0E8FB54E077
:102D90005648B0F8500040F6C411081A5849088047
:102DA0008915544805F0DDFB47E05048B0F8540061
:102DB0005349088049154F4805F0D1FB3DE04B4889
:102DC000B0F8540040F6C411081A4D49088049155E
:102DD000484805F0C6FB30E04448B0F85800484980
:102DE00008800915434805F0BAFB26E03F48B0F8D3
:102DF000580040F6C411081A4149088009153D4899
:102E000005F0AFFB19E03948B0F85C003C49088098
:102E1000C914384805F0A3FB0FE03448B0F85C0053
:102E200040F6C411081A36490880C914314805F023
:102E300098FB00203149087000BF00BF10BD10B5DD
:102E400030480078401C2F4908702F480078401CFB
:102E50002D4908702B480078322190FBF1F201FBDC
:102E6000120030B9002027490870FFF7D7FBFFF7A1
:102E70000EFAFFF782FD10BD10B524480078401C03
:102E8000224908701C480078401C1B4908701F48E4
:102E90000078322190FBF1F201FB120030B90020E2
:102EA0001A490870FFF744FCFFF79EFAFFF72AFE65
:102EB00010BD10B516480078401C154908700F4821
:102EC0000078401C0D49087011480078322190FBB1
:102ED000F1F201FB120030B900200D490870FFF734
:102EE000C2FCFFF70EFBFFF7DDFE10BDD400002093
:102EF0002C04004000100140640000206500002008
:102F00002C080040600000206300002061000020C9
:102F10006200002000B587B00121282005F02EFDB9
:102F20000121BF4805F03FFB8020ADF818001020BC
:102F30008DF81B0003208DF81A0006A9B94805F08A
:102F400061FA8021B74805F00AFB1820ADF8180097
:102F500006A9B44805F056FA0420ADF81800282058
:102F60008DF81B0006A9AF4805F04CFA1C21AE48AD
:102F700005F0F7FA05F061F90021AC4807F0B3FA63
:102F80000020ADF804004FF48270ADF80600002078
:102F9000ADF80800ADF80A00ADF80C004FF4007071
:102FA000ADF80E001820ADF810000020ADF81200AA
:102FB0000720ADF8140001A99C4807F0EFF90121A2
:102FC0009A4807F090FA0020994908600120994931
:102FD000C1F88C0107B000BD2DE9F04107460D4650
:102FE000164600209249091F0860384605F0FEF891
:102FF0008046002405E0FF2005F0F8F82855601C05
:10300000C4B2B442F7DB01208949091F0860404679
:10301000BDE8F0812DE9F04107460C461546002039
:103020008349091F0860384605F0E0F8804600260D
:1030300005E014F8010B05F0D9F8701CC6B2AE42D9
:10304000F7DB01207A49091F08604046BDE8F0819E
:103050001CB579A103C9CDE90001082005F033F9B9
:10306000052269463020FFF7D5FF0522694610206A
:10307000FFF7B2FF002406E01DF80400A52800D0E9
:1030800003E0601CC4B2052CF6DB00BF052C01D0A8
:1030900001201CBD0020FCE770B505460C46002051
:1030A0006349091F0860284605F0A0F80646204637
:1030B00005F09CF801205F49C1F88C01304670BDD5
:1030C00070B5044600205A49091F0860204605F0E3
:1030D0008DF8FF2005F08AF8054601205549C1F812
:1030E0008C01284670BD70B50546102005F0EBF840
:1030F00000204F49086020222946A020FFF78AFFC0
:1031000001204C49C1F8900100BF49488838006847
:103110000028FAD10720FFF7D3FF044621462720D5
:10312000FFF7BAFF04F0100028B1FF21E120FFF7FC
:10313000B3FF102070BD04F0200008B12020F9E793
:10314000FF20F7E770B50446102005F0BCF8072013
:10315000FFF7B6FF054629462720FFF79DFF05F03C
:10316000400050B1202221466120FFF735FFFF21AA
:10317000E220FFF791FF002070BD0120FCE710B5B1
:1031800000202B49086005222D492A20FFF742FF25
:1031900001212120FFF780FF01212220FFF77CFF82
:1031A00028212520FFF778FF20213120FFF774FF29
:1031B0000F212620FFF770FF0F212020FFF76CFF63
:1031C00001201C49C1F8900110BD10B5002018491C
:1031D000086005221B493020FFF71CFF0522184913
:1031E0002A20FFF717FF01212120FFF755FF0121BA
:1031F0002220FFF751FF1A212420FFF74DFF28213D
:103200002520FFF749FF0F212620FFF745FF0E215C
:103210002020FFF741FF01200649C1F8900110BDB1
:1032200000023000000C0140002001400038004046
:103230009081214200802142A5A5A5A5A5000000FE
:1032400019A9000814A90008FE4908807047FD4923
:10325000891C08807047FB48801C00887047F94A29
:103260001080921C1180704710B504462046FFF76D
:10327000EBFF0520FDF783F8FFF7EDFF10BDF248E7
:103280000089F04908807047EE49891C0880704722
:1032900030B5014601F01F04C1F34513CA0AE50227
:1032A00005EB43151544A8B230BD00BF0100A0F1E5
:1032B0000102D0B2FAD1704710B503460C46E2487D
:1032C000808849F24131884205D0DF48808845F244
:1032D0001031884214D1DC494889FFF7B5FF181234
:1032E000FFF7B5FFD8B2FFF7B2FFD7498889FFF7DC
:1032F000ABFF2012FFF7ABFFE0B2FFF7A8FF5DE0E6
:10330000D148808846F6040188421DD1CE48807994
:10331000012804D1CC480088401EC01A83B2CA4993
:103320004889FFF791FF1812FFF791FFD8B2FFF716
:103330008EFFC5498889FFF787FF2012FFF787FFB7
:10334000E0B2FFF784FF39E0BF48808845F21051B2
:10335000884220D1BC494889FFF776FF1812FFF751
:1033600076FFB9494989491C88B2FFF76DFFD8B289
:10337000FFF76DFFB4498889FFF766FF2012FFF75A
:1033800066FFB1498989491C88B2FFF75DFFE0B249
:10339000FFF75DFF12E0AC488079012804D1AA480C
:1033A0000088401EC01A83B2A74948891946FFF712
:1033B00056FFA54988892146FFF751FF10BD2DE929
:1033C000F04105460E4600240027A0469E4800888E
:1033D000A84203DD9C484088B04202DC0020BDE8E2
:1033E000F08131462846FFF767FF9748808849F209
:1033F000413188420BD09448808846F604018842C7
:1034000005D09148808845F21031884203D12E20A2
:10341000FFF71AFF0DE08C48808845F21051884272
:1034200004D14FF43850FFF70FFF02E02220FFF7DE
:103430000BFF8548808849F22031884202D1022062
:10344000FFF733FF7F48801C008800B10024022072
:10345000FFF72BFF7B48801C04887B48808849F25B
:10346000413188420BD07848808845F2103188423B
:1034700005D07548808845F2105188420CD1022051
:10348000FFF713FF6F48801CB0F80080E7B24FF6DB
:10349000FF7000EA072708E06B48808846F60401C1
:1034A000884202D16748801C04886748808849F2B6
:1034B0002531884216D06448808844F235518842CC
:1034C00010D061488088091F88420BD05E488088F0
:1034D00048F68911884205D05B4880884BF2055137
:1034E000884201D120467AE75748808849F2413125
:1034F00088420BD05448808845F21031884205D06C
:103500005148808845F21051884207D1E012C0022C
:10351000B91240EA411040EAE82060E72046FFF790
:10352000B7FE5CE700B54848808849F241318842DF
:103530000BD04548808846F60401884205D04248B1
:10354000808845F21031884203D12920FFF77CFEA4
:103550000FE03D48808845F21051884204D14FF475
:103560002450FFF771FE04E040F273110720FFF7CB
:1035700076FE00BD00B53448808849F2413188426A
:103580000BD03148808846F60401884205D02E4889
:10359000808845F21031884203D12820FFF754FE7D
:1035A0000EE02948808845F21051884204D14FF43A
:1035B0002050FFF749FE03E000210720FFF74FFEF0
:1035C00000BD70B50446002300261F4880790128FD
:1035D0001ED11D48808846F60401884218D0082C68
:1035E00015D2DFE804F00406080A0C0E10120624B7
:1035F0000DE007240BE0042409E0052407E0012482
:1036000005E0002403E0032401E0022400BF00BF22
:103610000D48808849F24131884211D00A4880889B
:1036200046F6040188420BD00748808845F21031E5
:10363000884205D00448808845F2105188427CD1E8
:10364000082C03E0FE07006C200200201CD2DFE8FB
:1036500004F00406090C0F12151800BF14E043F023
:10366000800311E043F040030EE043F0C0030BE0A1
:1036700043F0200308E043F0600305E043F0A003BB
:1036800002E043F0E00300BF00BFFC48808845F241
:103690001051884202D14FF4585600E03626F748C0
:1036A000808845F21031884207D0F448808845F27E
:1036B0001051884201D043F00803F048808846F654
:1036C0000401884201D143F0020319463046FFF756
:1036D000C6FD03F0200018B9E848807901280DD113
:1036E000E6480088E5494988884214DAE3480588B5
:1036F0004088E2490880084645800CE0DF480088A1
:10370000DE494988884206DDDC4805884088DB4977
:10371000088008464580D948808845F21051884283
:1037200054D1D6494889FFF78FFD0020FFF78FFD60
:10373000D2494989491C88B200E076E0FFF784FD50
:103740000020FFF784FDCD494989891C88B2FFF725
:103750007BFDCA490988491EC1F30F20FFF777FD99
:10376000C6494989C91C88B2FFF76EFDC34909786B
:10377000491EC8B2FFF76BFDC0498889FFF764FD99
:103780000020FFF764FDBD498989491C88B2FFF715
:103790005BFD0020FFF75BFDB8498989891C88B271
:1037A000FFF752FDB5494988491EC1F30F20FFF7C5
:1037B0004EFDB2498989C91C88B2FFF745FDAF4962
:1037C0008978491EC8B2FFF742FD60E0AB494889DD
:1037D000FFF73AFD0020FFF73AFD0020FFF737FD25
:1037E000A6490988491EC1F30F20FFF730FDA34900
:1037F0000978491EC8B2FFF72AFDA0498889FFF75A
:1038000023FD0020FFF723FD0020FFF720FD9B494B
:103810004988491EC1F30F20FFF719FD97498978A0
:10382000491EC8B2FFF713FD31E0082C1CD2DFE8B7
:1038300004F004070A0D0F12151843F0300313E0CB
:1038400043F0100310E043F020030DE000BF0BE055
:1038500043F0380308E043F0280305E043F0180381
:1038600002E043F0080300BF00BF8448808848F6A8
:103870008911884204D1112646F24000034302E038
:10388000032643F4805319463046FFF7E8FC70BD29
:1038900030B504460D4629462046FFF70DFDFFF7DB
:1038A000EEFC774800887749088030BD30B5034684
:1038B0000C4615467148808849F24131884205D04E
:1038C0006E48808845F21031884214D16B4948898E
:1038D000FFF7BAFC1812FFF7BAFCD8B2FFF7B7FC33
:1038E00066498889FFF7B0FC2012FFF7B0FCE0B210
:1038F000FFF7ADFC5DE06148808845F210518842D9
:1039000020D15E494889FFF79FFC1812FFF79FFC02
:103910005A494989491C88B2FFF796FCD8B2FFF78B
:1039200096FC56498889FFF78FFC2012FFF78FFC21
:1039300052498989491C88B2FFF786FCE0B2FFF73B
:1039400086FC36E04D48808846F6040188421DD149
:103950004A488079012804D148480088401EC01A8E
:1039600083B246494889FFF76FFC1812FFF76FFCD6
:10397000D8B2FFF76CFC41498889FFF765FC20123B
:10398000FFF765FCE0B2FFF762FC12E03B4880798C
:10399000012804D139480088401EC01A83B2374933
:1039A00048891946FFF75BFC344988892146FFF7AF
:1039B00056FC324800893349891E0880881C0580DE
:1039C00030BD10B50446002C66D12C498871F0201A
:1039D00008804FF4A07048800846808849F2413141
:1039E00088420BD02548808846F60401884205D0DD
:1039F0002248808845F2103188421AD12C201F4974
:103A000008812A2048812B2088810846808846F634
:103A10000401884205D01948808845F21031884257
:103A200006D14FF4A070154908804FF4F07048801B
:103A30009BE01248808848F68911884207D12220ED
:103A40000E4908814E2048814F2088818DE00B4827
:103A5000808845F21051884216D14FF43050074902
:103A600008814FF4285048814FF42C5088814FF43E
:103A7000F07008804FF44870488076E02002002003
:103A8000940100200008006C2220FE4908812020BB
:103A900048812120888168E00120FA4988714FF42B
:103AA000A0700880F02048800846808849F24131A3
:103AB000884205D0F348808845F21031884207D10A
:103AC0002C20F04908812A2048812B20888139E068
:103AD000EC48808846F60401884207D12C20E94949
:103AE00008812B2048812A2088812BE0E5488088A6
:103AF00048F68911884207D12220E24908814F20E7
:103B000048814E2088811DE0DE48808845F21051B2
:103B1000884210D14FF43050DA4908814FF42850D0
:103B200048814FF42C5088814FF4487008804FF43E
:103B3000F070488006E02220D24908812120488187
:103B400020208881CF48808846F60401884205D02D
:103B5000CC48808845F21031884206D14FF4F0708D
:103B6000C84908804FF4A07048800020FFF729FD65
:103B700010BD2DE9FF4F04460D4616461F46A019FD
:103B8000401E86B2E819401E87B2BE48808849F2BE
:103B9000413188420BD0BB48808845F210318842C1
:103BA00005D0B848808846F60401884220D1B5493E
:103BB0004889FFF749FB2012FFF749FBE0B2FFF706
:103BC00046FB3012FFF743FBF0B2FFF740FBAD4975
:103BD0008889FFF739FB2812FFF739FBE8B2FFF7B6
:103BE00036FB3812FFF733FBF8B2FFF730FB91E0FA
:103BF000A448808845F21051884244D1A14948899F
:103C0000FFF722FB2012FFF722FB9E494989491C3E
:103C100088B2FFF719FBE0B2FFF719FB9949498910
:103C2000891C88B2FFF710FB3012FFF710FB954993
:103C30004989C91C88B2FFF707FBF0B2FFF707FB01
:103C400090498889FFF700FB2812FFF700FB8D4998
:103C50008989491C88B2FFF7F7FAE8B2FFF7F7FA4B
:103C600088498989891C88B2FFF7EEFA3812FFF774
:103C7000EEFA84498989C91C88B2FFF7E5FAF8B2DF
:103C8000FFF7E5FA46E07F48807901280ED1A84683
:103C9000B9467C480088801B401E80B2019079485C
:103CA0000088001B401E80B2009003E0A046B14691
:103CB000019500977348808848F6891188420DD194
:103CC0004FF0440A4FF0440B48EA09201FFA80F8ED
:103CD000C146452003904620029007E04FF0500A6D
:103CE0004FF0510B52200390532002904146504612
:103CF000FFF7B5FA49465846FFF7B1FA019903981C
:103D0000FFF7ADFA00990298FFF7A9FA2946204675
:103D1000FFF7D2FABDE8FF8F70B504460026594878
:103D20000588408845435748808846F60401884204
:103D300016D154488079012812D100205149887148
:103D40002A2048812B20888100210846FFF7B4FAF9
:103D500001204C4988712B2048812A20888103E06A
:103D600000210846FFF7A8FAFFF789FA002602E0CB
:103D700045480480761CAE42FAD370BD00B59FB0B2
:103D80000121080204F0EDFD012140F2691004F068
:103D9000F5FD0120ADF8780010208DF87B000320A0
:103DA0008DF87A001EA9394804F02CFB4CF23370D0
:103DB000ADF8780018208DF87B0003208DF87A008C
:103DC0001EA9334804F01EFB4FF68070ADF8780052
:103DD00018208DF87B0003208DF87A001EA92D484D
:103DE00004F010FB41F20100ADF8780018208DF8C6
:103DF0007B0003208DF87A001EA9274804F002FBFF
:103E000001200890002009900F200A9000200B90BC
:103E10000C900D900E9001900290032003900020D2
:103E2000049005900690079006200F9000201090B7
:103E3000119010201290002013901590149016905D
:103E400017904FF480501890002019904FF4804044
:103E50001A9000201B9008A81C9001A81D900FA884
:103E600005F0BCFF0121062006F020F93220FCF706
:103E70009EFA01210020FFF7F2F93220FCF797FAB1
:103E800000200BE0200200200008006C000C014024
:103E9000001401400018014000200140FFF7E4F940
:103EA000FE49888008468088FF280ADB084680880B
:103EB0004FF6FF71884204D0F8488088B0F5134F60
:103EC0007ED1D320FFF7C0F9FFF7C5F9FFF7C3F99B
:103ED000FFF7C1F9F1498880084680884FF6FF71E5
:103EE00001EA0020ED498880FFF7B5F9EB498988A0
:103EF0000843EA4988800846808849F2413188426F
:103F00006CD0BF20FFF7A0F9FFF7A5F9FFF7A3F9E1
:103F1000FFF7A1F9FFF79FF9E049888008468088FC
:103F20004FF6FF7101EA0020DC498880FFF793F922
:103F3000DA4989880843D94988800846808846F646
:103F4000040188424AD0D420FFF77EF9FFF783F9B5
:103F5000FFF781F9FFF77FF9D0498880084680880C
:103F60004FF6FF7101EA0020CC498880FFF773F912
:103F7000CA4989880843C94988800846808845F22B
:103F8000103188422AD04FF45A40FFF75DF9FFF70D
:103F900062F94FF45B40FFF757F9FFF75CF9BF494F
:103FA0008880084680884FF6FF7101EA0020BB49EF
:103FB00088804FF45C40FFF747F9FFF74CF900E0C9
:103FC0000CE0B64989880843B4498880084680884F
:103FD000B0F5004F02D145F210508880AF4880887C
:103FE00049F2413188427CD1CF20FFF72DF90020E2
:103FF000FFF72DF9C120FFF72AF93020FFF727F945
:10400000ED20FFF721F96420FFF721F90320FFF7E6
:104010001EF91220FFF71BF98120FFF718F9E8209D
:10402000FFF712F98520FFF712F91020FFF70FF9BB
:104030007A20FFF70CF9CB20FFF706F93920FFF7BC
:1040400006F92C20FFF703F90020FFF700F93420D0
:10405000FFF7FDF80220FFF7FAF8F720FFF7F4F872
:104060002020FFF7F4F8EA20FFF7EEF80020FFF732
:10407000EEF80020FFF7EBF8C020FFF7E5F81B2073
:10408000FFF7E5F8C120FFF7DFF80120FFF7DFF8C1
:10409000C520FFF7D9F83020FFF7D9F83020FFF717
:1040A000D6F8C720FFF7D0F8B720FFF7D0F83620B2
:1040B000FFF7CAF84820FFF7CAF83A20FFF7C4F81C
:1040C0005520FFF7C4F8B120FFF7BEF80020FFF736
:1040D000BEF81A20FFF7BBF8B620FFF7B5F80A20A4
:1040E00000E099E0FFF7B3F8A220FFF7B0F8F22064
:1040F000FFF7AAF80020FFF7AAF82620FFF7A4F898
:104100000120FFF7A4F8E020FFF79EF80F20FFF74B
:104110009EF82A20FFF79BF82820FFF798F8082040
:10412000FFF795F80E20FFF792F80820FFF78FF8B9
:104130005420FFF78CF8A920FFF789F84320FFF7F8
:1041400086F80A20FFF783F80F20FFF780F8002099
:10415000FFF77DF80020FFF77AF80020FFF777F8E7
:104160000020FFF774F8E120FFF76EF80020FFF75A
:104170006EF81520FFF76BF81720FFF768F8072097
:10418000FFF765F81120FFF762F80620FFF75FF8E8
:104190002B20FFF75CF85620FFF759F83C20FFF77B
:1041A00056F80520FFF753F81020FFF750F80F20BE
:1041B000FFF74DF83F20FFF74AF83F20FFF747F899
:1041C0000F20FFF744F82B20FFF73EF80020FFF701
:1041D0003EF80020FFF73BF80120FFF738F83F20BA
:1041E000FFF735F82A20FFF72FF80020FFF72FF808
:1041F0000020FFF72CF80020FFF729F8EF20FFF749
:1042000026F81120FFF720F87820FCF7D0F82920B5
:10421000FFF71AF803F023B92048808846F6040116
:1042200088427DD11120FFF70FF81420FCF7BFF86A
:10423000D020FFF709F80720FFF709F84220FFF721
:1042400006F81D20FFF703F8D120FEF7FDFF002040
:10425000FEF7FDFF1A20FEF7FAFF0920FEF7F7FF31
:10426000D220FEF7F1FF0120FEF7F1FF2220FEF73A
:10427000EEFFC020FEF7E8FF1020FEF7E8FF3B202E
:10428000FEF7E5FF0020FEF7E2FF0220FEF7DFFF6A
:104290001120FEF7DCFFC52002E000002002002014
:1042A000FEF7D2FF0320FEF7D2FFC820FEF7CCFFB7
:1042B0000020FEF7CCFF2520FEF7C9FF2120FEF7E6
:1042C000C6FF0520FEF7C3FF0020FEF7C0FF0A204F
:1042D000FEF7BDFF6520FEF7BAFF2520FEF7B7FF0A
:1042E0007720FEF7B4FF5020FEF7B1FF0F20FEF756
:1042F000AEFF0020FEF7ABFFF820FEF7A5FF012080
:10430000FEF7A5FFFE20FEF79FFF0020FEF79FFFB0
:104310000220FEF79CFF2020FEF796FF362000E0EB
:104320002FE0FEF791FF0820FEF791FF3A20FEF7FD
:104330008BFF5520FEF78BFF2B20FEF785FF00201B
:10434000FEF785FF0020FEF782FF0120FEF77FFFCA
:104350003F20FEF77CFF2A20FEF776FF0020FEF7C5
:1043600076FF0020FEF773FF0120FEF770FFDF20CD
:10437000FEF76DFF7820FCF71AF82920FEF764FF9E
:1043800048E7FE48808845F21031884240F07C873B
:10439000ED20FEF759FF0120FEF759FFFE20FEF742
:1043A00056FFEE20FEF750FFDE20FEF750FF2120E3
:1043B000FEF74DFFF120FEF747FF0120FEF747FF14
:1043C000DF20FEF741FF1020FEF741FFC420FEF77B
:1043D0003BFF8F20FEF73BFFC620FEF735FF002096
:1043E000FEF735FFE220FEF732FFE220FEF72FFF57
:1043F000E220FEF72CFFBF20FEF726FFAA20FEF7E3
:1044000026FFB020FEF720FF0D20FEF720FF002042
:10441000FEF71DFF0D20FEF71AFF0020FEF717FF25
:104420001120FEF714FF0020FEF711FF1920FEF700
:104430000EFF0020FEF70BFF2120FEF708FF0020F3
:10444000FEF705FF2D20FEF702FF0020FEF7FFFE1E
:104450003D20FEF7FCFE0020FEF7F9FE5D20FEF792
:10446000F6FE0020FEF7F3FE5D20FEF7F0FE0020D2
:10447000FEF7EDFEB120FEF7E7FE8020FEF7E7FE37
:104480000020FEF7E4FE8B20FEF7E1FE0020FEF7A1
:10449000DEFE9620FEF7DBFE0020FEF7D8FEB220FF
:1044A000FEF7D2FE0020FEF7D2FE0020FEF7CFFE80
:1044B0000220FEF7CCFE0020FEF7C9FE0320FEF727
:1044C000C6FE0020FEF7C3FEB320FEF7BDFE0020AF
:1044D000FEF7BDFE0020FEF7BAFE0020FEF7B7FE95
:1044E0000020FEF7B4FE0020FEF7B1FE0020FEF72C
:1044F000AEFE0020FEF7ABFE0020FEF7A8FE002077
:10450000FEF7A5FE0020FEF7A2FE0020FEF79FFEAC
:104510000020FEF79CFE0020FEF799FE0020FEF72B
:1045200096FE0020FEF793FE0020FEF790FE00208E
:10453000FEF78DFE0020FEF78AFE0020FEF787FEC4
:104540000020FEF784FE0020FEF781FE0020FEF72B
:104550007EFE0020FEF77BFE0020FEF778FEB420F2
:10456000FEF772FE8B20FEF772FE0020FEF76FFE54
:104570009620FEF76CFE0020FEF769FEA120FEF7F4
:1045800066FE0020FEF763FEB520FEF75DFE02200A
:10459000FEF75DFE0020FEF75AFE0320FEF757FEF1
:1045A0000020FEF754FE0420FEF751FE0020FEF727
:1045B0004EFEB620FEF748FE0020FEF748FE002023
:1045C000FEF745FEB720FEF73FFE0020FEF73FFE58
:1045D0000020FEF73CFE3F20FEF739FE0020FEF7EC
:1045E00036FE5E20FEF733FE0020FEF730FE64202C
:1045F000FEF72DFE0020FEF72AFE8C20FEF727FE98
:104600000020FEF724FEAC20FEF721FE0020FEF77E
:104610001EFEDC20FEF71BFE0020FEF718FE7020B9
:10462000FEF715FE0020FEF712FE9020FEF70FFEAB
:104630000020FEF70CFEEB20FEF709FE0020FEF73F
:1046400006FEDC20FEF703FE0020FEF700FEB82089
:10465000FEF7FAFD0020FEF7FAFD0020FEF7F7FD59
:104660000020FEF7F4FD0020FEF7F1FD0020FEF72C
:10467000EEFD0020FEF7EBFD0020FEF7E8FD002038
:10468000FEF7E5FDBA20FEF7DFFD2420FEF7DFFD93
:104690000020FEF7DCFD0020FEF7D9FD0020FEF72C
:1046A000D6FDC120FEF7D0FD2020FEF7D0FD002072
:1046B000FEF7CDFD5420FEF7CAFD0020FEF7C7FD32
:1046C000FF20FEF7C4FD0020FEF7C1FDC220FEF76B
:1046D000BBFD0A20FEF7BBFD0020FEF7B8FD04205D
:1046E000FEF7B5FD0020FEF7B2FDC320FEF7ACFDDE
:1046F0003C20FEF7ACFD0020FEF7A9FD3A20FEF7B6
:10470000A6FD0020FEF7A3FD3920FEF7A0FD002046
:10471000FEF79DFD3720FEF79AFD0020FEF797FD7E
:104720003C20FEF794FD0020FEF791FD3620FEF7B9
:104730008EFD0020FEF78BFD3220FEF788FD002065
:10474000FEF785FD2F20FEF782FD0020FEF77FFD9E
:104750002C20FEF77CFD0020FEF779FD2920FEF7D6
:1047600076FD0020FEF773FD2620FEF770FD002089
:10477000FEF76DFD2420FEF76AFD01E02002002017
:104780000020FEF764FD2420FEF761FD0020FEF707
:104790005EFD2320FEF75BFD0020FEF758FD3C2068
:1047A000FEF755FD0020FEF752FD3620FEF74FFDC7
:1047B0000020FEF74CFD3220FEF749FD0020FEF7F9
:1047C00046FD2F20FEF743FD0020FEF740FD2C2084
:1047D000FEF73DFD0020FEF73AFD2920FEF737FDEC
:1047E0000020FEF734FD2620FEF731FD0020FEF705
:1047F0002EFD2420FEF72BFD0020FEF728FD2420AF
:10480000FEF725FD0020FEF722FD2320FEF71FFD09
:104810000020FEF71CFDC420FEF716FD6220FEF707
:1048200016FD0020FEF713FD0520FEF710FD002009
:10483000FEF70DFD8420FEF70AFD0020FEF707FDC0
:10484000F020FEF704FD0020FEF701FD1820FEF722
:10485000FEFC0020FEF7FBFCA420FEF7F8FC002085
:10486000FEF7F5FC1820FEF7F2FC0020FEF7EFFC47
:104870005020FEF7ECFC0020FEF7E9FC0C20FEF7D0
:10488000E6FC0020FEF7E3FC1720FEF7E0FC00202A
:10489000FEF7DDFC9520FEF7DAFC0020FEF7D7FCE2
:1048A000F320FEF7D4FC0020FEF7D1FCE620FEF753
:1048B000CEFC0020FEF7CBFCC520FEF7C5FC322065
:1048C000FEF7C5FC0020FEF7C2FC4420FEF7BFFC4B
:1048D0000020FEF7BCFC6520FEF7B9FC0020FEF7C7
:1048E000B6FC7620FEF7B3FC0020FEF7B0FC882073
:1048F000FEF7ADFC0020FEF7AAFCC620FEF7A4FCE4
:104900002020FEF7A4FC0020FEF7A1FC1720FEF7F4
:104910009EFC0020FEF79BFC0120FEF798FC002087
:10492000FEF795FCC720FEF78FFC0020FEF78FFCFA
:104930000020FEF78CFC0020FEF789FC0020FEF72B
:1049400086FCC820FEF780FC0020FEF780FC0020DB
:10495000FEF77DFC0020FEF77AFC0020FEF777FCD6
:10496000C920FEF771FC0020FEF771FC0020FEF765
:104970006EFC0020FEF76BFC0020FEF768FC0020B8
:10498000FEF765FC0020FEF762FC0020FEF75FFCEE
:104990000020FEF75CFC0020FEF759FC0020FEF72B
:1049A00056FC0020FEF753FC0020FEF750FC0020D0
:1049B000FEF74DFC0020FEF74AFC0020FEF747FC06
:1049C0000020FEF744FCE020FEF73EFC1620FEF738
:1049D0003EFC0020FEF73BFC1C20FEF738FC0020CC
:1049E000FEF735FC2120FEF732FC0020FEF72FFCFD
:1049F0003620FEF72CFC0020FEF729FC4620FEF7AF
:104A000026FC0020FEF723FC5220FEF720FC0020AD
:104A1000FEF71DFC6420FEF71AFC0020FEF717FCD1
:104A20007A20FEF714FC0020FEF711FC8B20FEF725
:104A30000EFC0020FEF70BFC9920FEF708FC00207E
:104A4000FEF705FCA820FEF702FC0020FEF7FFFBA6
:104A5000B920FEF7FCFB0020FEF7F9FBC420FEF7AF
:104A6000F6FB0020FEF7F3FBCA20FEF7F0FB002068
:104A7000FEF7EDFBD220FEF7EAFB0020FEF7E7FB96
:104A8000D920FEF7E4FB0020FEF7E1FBE020FEF773
:104A9000DEFB0020FEF7DBFBF320FEF7D8FB002057
:104AA000FEF7D5FBE120FEF7CFFB1620FEF7CFFB8C
:104AB0000020FEF7CCFB1C20FEF7C9FB0020FEF710
:104AC000C6FB2220FEF7C3FB0020FEF7C0FB36200A
:104AD000FEF7BDFB0020FEF7BAFB4520FEF7B7FB53
:104AE0000020FEF7B4FB5220FEF7B1FB0020FEF7DA
:104AF000AEFB6420FEF7ABFB0020FEF7A8FB7A209C
:104B0000FEF7A5FB0020FEF7A2FB8B20FEF79FFB24
:104B10000020FEF79CFB9920FEF799FB0020FEF792
:104B200096FBA820FEF793FB0020FEF790FBB92030
:104B3000FEF78DFB0020FEF78AFBC420FEF787FB03
:104B40000020FEF784FBCA20FEF781FB0020FEF761
:104B50007EFBD220FEF77BFB0020FEF778FBD820FF
:104B6000FEF775FB0020FEF772FBE020FEF76FFBFF
:104B70000020FEF76CFBF320FEF769FB0020FEF738
:104B800066FBE220FEF760FB0520FEF760FB0020DD
:104B9000FEF75DFB0B20FEF75AFB0020FEF757FBEC
:104BA0001B20FEF754FB0020FEF751FB3420FEF7DC
:104BB0004EFB0020FEF74BFB4420FEF748FB002095
:104BC000FEF745FB4F20FEF742FB0020FEF73FFBC0
:104BD0006120FEF73CFB0020FEF739FB7920FEF751
:104BE00036FB0020FEF733FB8820FEF730FB002069
:104BF000FEF72DFB9720FEF72AFB0020FEF727FB90
:104C0000A620FEF724FB0020FEF721FBB720FEF7CD
:104C10001EFB0020FEF71BFBC220FEF718FB002046
:104C2000FEF715FBC720FEF712FB0020FEF70FFB77
:104C3000D120FEF70CFB0020FEF709FBD620FEF783
:104C400006FB0020FEF703FBDD20FEF700FB002043
:104C5000FEF7FDFAF320FEF7FAFA0020FEF7F7FA66
:104C6000E320FEF7F1FA0520FEF7F1FA0020FEF747
:104C7000EEFA0A20FEF7EBFA0020FEF7E8FA1C2015
:104C8000FEF7E5FA0020FEF7E2FA3320FEF7DFFA3E
:104C90000020FEF7DCFA4420FEF7D9FA0020FEF7E8
:104CA000D6FA5020FEF7D3FA0020FEF7D0FA6220A1
:104CB000FEF7CDFA0020FEF7CAFA7820FEF7C7FA11
:104CC0000020FEF7C4FA8820FEF7C1FA0020FEF7A4
:104CD000BEFA9720FEF7BBFA0020FEF7B8FAA6202E
:104CE000FEF7B5FA0020FEF7B2FAB720FEF7AFFAEA
:104CF0000020FEF7ACFAC220FEF7A9FA0020FEF76A
:104D0000A6FAC720FEF7A3FA0020FEF7A0FAD120EA
:104D1000FEF79DFA0020FEF79AFAD520FEF797FAE3
:104D20000020FEF794FADD20FEF791FA0020FEF74E
:104D30008EFAF320FEF78BFA0020FEF788FAE420C3
:104D4000FEF782FA0120FEF782FA0020FEF77FFAD2
:104D50000120FEF77CFA0020FEF779FA0220FEF728
:104D600076FA0020FEF773FA2A20FEF770FA002088
:104D7000FEF76DFA3C20FEF76AFA0020FEF767FAAC
:104D80004B20FEF764FA0020FEF761FA5D20FEF783
:104D90005EFA0020FEF75BFA7420FEF758FA002056
:104DA000FEF755FA8420FEF752FA0020FEF74FFA7C
:104DB0009320FEF74CFA0020FEF749FAA220FEF7F6
:104DC00046FA0020FEF743FAB320FEF740FA00202F
:104DD000FEF73DFABE20FEF73AFA0020FEF737FA5A
:104DE000C420FEF734FA0020FEF731FACD20FEF79A
:104DF0002EFA0020FEF72BFAD320FEF728FA002027
:104E0000FEF725FADD20FEF722FA0020FEF71FFA52
:104E1000F320FEF71CFA0020FEF719FAE520FEF752
:104E200013FA0020FEF713FA0020FEF710FA002014
:104E3000FEF70DFA0020FEF70AFA0220FEF707FA45
:104E40000020FEF704FA2920FEF701FA0020FEF701
:104E5000FEF93C20FEF7FBF90020FEF7F8F94B20A5
:104E6000FEF7F5F90020FEF7F2F95D20FEF7EFF905
:104E70000020FEF7ECF97420FEF7E9F90020FEF7B8
:104E8000E6F98420FEF7E3F90020FEF7E0F993202D
:104E9000FEF7DDF90020FEF7DAF9A220FEF7D7F9D8
:104EA0000020FEF7D4F9B320FEF7D1F90020FEF779
:104EB000CEF9BE20FEF7CBF90020FEF7C8F9C420DA
:104EC000FEF7C5F90020FEF7C2F9CD20FEF7BFF9C5
:104ED0000020FEF7BCF9D320FEF7B9F90020FEF759
:104EE000B6F9DC20FEF7B3F90020FEF7B0F9F320A5
:104EF000FEF7ADF90020FEF7AAF9E620FEF7A4F9C7
:104F00001120FEF7A4F90020FEF7A1F93420FEF7E6
:104F10009EF90020FEF79BF95620FEF798F9002035
:104F2000FEF795F97620FEF792F90020FEF78FF94B
:104F30007720FEF78CF90020FEF789F96620FEF74E
:104F400086F90020FEF783F98820FEF780F900201B
:104F5000FEF77DF99920FEF77AF90020FEF777F940
:104F6000BB20FEF774F90020FEF771F99920FEF7D7
:104F70006EF90020FEF76BF96620FEF768F9002055
:104F8000FEF765F95520FEF762F90020FEF75FF99C
:104F90005520FEF75CF90020FEF759F94520FEF791
:104FA00056F90020FEF753F94320FEF750F9002090
:104FB000FEF74DF94420FEF74AF90020FEF747F9C5
:104FC000E720FEF741F93220FEF741F90020FEF715
:104FD0003EF95520FEF73BF90020FEF738F9762020
:104FE000FEF735F90020FEF732F96620FEF72FF9BB
:104FF0000020FEF72CF96720FEF729F90020FEF7C4
:1050000026F96720FEF723F90020FEF720F9872014
:10501000FEF71DF90020FEF71AF99920FEF717F99F
:105020000020FEF714F9BB20FEF711F90020FEF76F
:105030000EF99920FEF70BF90020FEF708F977200A
:10504000FEF705F90020FEF702F94420FEF7FFF80D
:105050000020FEF7FCF85620FEF7F9F80020FEF7D6
:10506000F6F82320FEF7F3F80020FEF7F0F83320DF
:10507000FEF7EDF80020FEF7EAF84520FEF7E7F826
:105080000020FEF7E4F8E820FEF7DEF80020FEF747
:10509000DEF80020FEF7DBF89920FEF7D8F80020B4
:1050A000FEF7D5F88720FEF7D2F80020FEF7CFF8FC
:1050B0008820FEF7CCF80020FEF7C9F87720FEF72D
:1050C000C6F80020FEF7C3F86620FEF7C0F80020FF
:1050D000FEF7BDF88820FEF7BAF80020FEF7B7F813
:1050E000AA20FEF7B4F80020FEF7B1F8BB20FEF7C7
:1050F000AEF80020FEF7ABF89920FEF7A8F80020E4
:10510000FEF7A5F86620FEF7A2F80020FEF79FF84C
:105110005520FEF79CF80020FEF799F85520FEF781
:1051200096F80020FEF793F84420FEF790F8002050
:10513000FEF78DF84420FEF78AF80020FEF787F886
:105140005520FEF784F80020FEF781F8E920FEF7ED
:105150007BF8AA20FEF77BF80020FEF778F8002005
:10516000FEF775F80020FEF772F80020FEF76CF8E5
:10517000AA20FEF76CF8CF20FEF766F80020FEF7B5
:1051800066F80020FEF763F80020FEF760F80020C4
:10519000FEF75DF80020FEF75AF80020FEF757F8FA
:1051A0000020FEF754F80020FEF751F80020FEF72B
:1051B0004EF80020FEF74BF80020FEF748F80020DC
:1051C000FEF745F80020FEF742F80020FEF73FF812
:1051D0000020FEF73CF80020FEF739F80020FEF72B
:1051E00036F8F020FEF730F80020FEF730F85020B7
:1051F000FEF72DF80020FEF72AF80020FEF727F82A
:105200000020FEF724F8F320FEF71EF80020FEF73A
:105210001EF8F920FEF718F80620FEF718F81020FF
:10522000FEF715F82920FEF712F80020FEF70FF818
:105230003A20FEF709F85520FEF709F81120FEF78D
:1052400003F86420FBF7B3F82920FDF7FDFF3520B4
:10525000FDF7FAFF0020FDF7FAFF5120FDF7F4FFFC
:10526000FF20FDF7F4FF5320FDF7EEFF2C20FDF7A4
:10527000EEFF5520FDF7E8FF8220FDF7E8FF2C2028
:10528000FDF7E2FF02F0EBB8FE48808845F21051CE
:1052900088427DD155214FF47040FDF7E0FFAA21EF
:1052A0004FF20100FDF7DBFF52214FF20200FDF744
:1052B000D6FF08214FF20300FDF7D1FF01214FF285
:1052C0000400FDF7CCFF0D214FF43040FDF7C7FF80
:1052D0000D214BF20100FDF7C2FF0D214BF2020040
:1052E000FDF7BDFF34214FF43640FDF7B8FF342100
:1052F0004BF20160FDF7B3FF34214BF20260FDF782
:10530000AEFF0D214FF43140FDF7A9FF0D214BF207
:105310000110FDF7A4FF0D214BF20210FDF79FFFD6
:1053200034214FF43740FDF79AFF34214BF20170DE
:10533000FDF795FF34214BF20270FDF790FF00213D
:105340004FF43240FDF78BFF00214BF20120FDF7B7
:1053500086FF00214BF20220FDF781FF24214FF44C
:105360003840FDF77CFF24214BF60100FDF777FF65
:1053700024214BF60200FDF772FF01214FF43F405C
:10538000FDF76DFF0F214FF43340FDF768FF00E09C
:10539000FDE30F214BF20130FDF761FF0F214BF2CE
:1053A0000230FDF75CFF34214FF43940FDF757FF21
:1053B00034214BF60110FDF752FF34214BF6021059
:1053C000FDF74DFF08214FF43540FDF748FF082158
:1053D0004BF20150FDF743FF08214BF20250FDF75D
:1053E0003EFF03214FF44240FDF739FF24214FF4E3
:1053F0003A40FDF734FF24214BF60120FDF72FFF43
:1054000024214BF60220FDF72AFF00214FF43C40F7
:10541000FDF725FF78214BF60140FDF720FF002125
:105420004BF60240FDF71BFF00214FF43D40FDF716
:1054300016FF78214BF60150FDF711FF00214BF6C6
:105440000250FDF70CFF00214FF43E40FDF707FF2F
:1054500064214BF60160FDF702FF00214FF451403B
:10546000FDF7FDFE33214DF20110FDF7F8FE00219E
:105470004DF20210FDF7F3FE34214DF20310FDF75B
:10548000EEFE00214DF20410FDF7E9FE3A214DF247
:105490000510FDF7E4FE00214DF20610FDF7DFFEDA
:1054A0004A214DF20710FDF7DAFE00214DF20810F7
:1054B000FDF7D5FE5C214DF20910FDF7D0FE00216D
:1054C0004DF20A10FDF7CBFE81214DF20B10FDF7D6
:1054D000C6FE00214DF20C10FDF7C1FEA6214DF2D3
:1054E0000D10FDF7BCFE00214DF20E10FDF7B7FECA
:1054F000E5214DF20F10FDF7B2FE01214DF2101023
:10550000FDF7ADFE13214DF21110FDF7A8FE0121AC
:105510004DF21210FDF7A3FE54214DF21310FDF7CA
:105520009EFE01214DF21410FDF799FE82214DF2ED
:105530001510FDF794FE01214DF21610FDF78FFEB8
:10554000CA214DF21710FDF78AFE02214DF2181004
:10555000FDF785FE00214DF21910FDF780FE0221B6
:105560004DF21A10FDF77BFE01214DF21B10FDF7E5
:1055700076FE02214DF21C10FDF771FE34214DF232
:105580001D10FDF76CFE02214DF21E10FDF767FEA7
:1055900067214DF21F10FDF762FE02214DF220102F
:1055A000FDF75DFE84214DF22110FDF758FE02212A
:1055B0004DF22210FDF753FEA4214DF22310FDF70A
:1055C0004EFE02214DF22410FDF749FEB7214DF2A7
:1055D0002510FDF744FE02214DF22610FDF73FFE97
:1055E000CF214DF22710FDF73AFE02214DF228108F
:1055F000FDF735FEDE214DF22910FDF730FE0221C8
:105600004DF22A10FDF72BFEF2214DF22B10FDF783
:1056100026FE02214DF22C10FDF721FEFE214DF257
:105620002D10FDF71CFE03214DF22E10FDF717FE85
:1056300010214DF22F10FDF712FE03214DF2301014
:10564000FDF70DFE33214DF23110FDF708FE032169
:105650004DF23210FDF703FE6D214DF23310FDF7D0
:10566000FEFD00214FF45240FDF7F9FD33214DF2CC
:105670000120FDF7F4FD00214DF20220FDF7EFFDC2
:10568000342101E0200200204DF20320FDF7E7FD68
:1056900000214DF20420FDF7E2FD3A214DF20520F4
:1056A000FDF7DDFD00214DF20620FDF7D8FD4A2172
:1056B0004DF20720FDF7D3FD00214DF20820FDF744
:1056C000CEFD5C214DF20920FDF7C9FD00214DF210
:1056D0000A20FDF7C4FD81214DF20B20FDF7BFFD2F
:1056E00000214DF20C20FDF7BAFDA6214DF20D2050
:1056F000FDF7B5FD00214DF20E20FDF7B0FDE521CF
:105700004DF20F20FDF7ABFD01214DF21020FDF70A
:10571000A6FD13214DF21120FDF7A1FD01214DF24F
:105720001220FDF79CFD54214DF21320FDF797FD4B
:1057300001214DF21420FDF792FD82214DF215203A
:10574000FDF78DFD01214DF21620FDF788FDCA21E0
:105750004DF21720FDF783FD02214DF21820FDF7D1
:105760007EFD00214DF21920FDF779FD02214DF259
:105770001A20FDF774FD01214DF21B20FDF76FFD8E
:1057800002214DF21C20FDF76AFD34214DF21D204F
:10579000FDF765FD02214DF21E20FDF760FD67213A
:1057A0004DF21F20FDF75BFD02214DF22020FDF799
:1057B00056FD84214DF22120FDF751FD02214DF2CD
:1057C0002220FDF74CFDA4214DF22320FDF747FDDB
:1057D00002214DF22420FDF742FDB7214DF2252094
:1057E000FDF73DFD02214DF22620FDF738FDCF21CA
:1057F0004DF22720FDF733FD02214DF22820FDF761
:105800002EFDDE214DF22920FDF729FD02214DF26A
:105810002A20FDF724FDF2214DF22B20FDF71FFD7C
:1058200002214DF22C20FDF71AFDFE214DF22D2014
:10583000FDF715FD03214DF22E20FDF710FD10217F
:105840004DF22F20FDF70BFD03214DF23020FDF727
:1058500006FD33214DF23120FDF701FD03214DF20C
:105860003220FDF7FCFC6D214DF23320FDF7F7FCF3
:1058700000214FF45340FDF7F2FC33214DF201308B
:10588000FDF7EDFC00214DF20230FDF7E8FC34217C
:105890004DF20330FDF7E3FC00214DF20430FDF73B
:1058A000DEFC3A214DF20530FDF7D9FC00214DF226
:1058B0000630FDF7D4FC4A214DF20730FDF7CFFC4E
:1058C00000214DF20830FDF7CAFC5C214DF2093091
:1058D000FDF7C5FC00214DF20A30FDF7C0FC812127
:1058E0004DF20B30FDF7BBFC00214DF20C30FDF703
:1058F000B6FCA6214DF20D30FDF7B1FC00214DF2B2
:105900000E30FDF7ACFCE5214DF20F30FDF7A7FCA2
:1059100001214DF21030FDF7A2FC13214DF21130A0
:10592000FDF79DFC01214DF21230FDF798FC54214A
:105930004DF21330FDF793FC01214DF21430FDF7C9
:105940008EFC82214DF21530FDF789FC01214DF2CC
:105950001630FDF784FCCA214DF21730FDF77FFCAD
:1059600002214DF21830FDF77AFC00214DF219307A
:10597000FDF775FC02214DF21A30FDF770FC012194
:105980004DF21B30FDF76BFC02214DF21C30FDF790
:1059900066FC34214DF21D30FDF761FC02214DF211
:1059A0001E30FDF75CFC67214DF21F30FDF757FC00
:1059B00002214DF22030FDF752FC84214DF22130BE
:1059C000FDF74DFC02214DF22230FDF748FCA421E9
:1059D0004DF22330FDF743FC02214DF22430FDF758
:1059E0003EFCB7214DF22530FDF739FC02214DF286
:1059F0002630FDF734FCCF214DF22730FDF72FFC88
:105A000002214DF22830FDF72AFCDE214DF229302B
:105A1000FDF725FC02214DF22A30FDF720FCF22192
:105A20004DF22B30FDF71BFC02214DF22C30FDF71F
:105A300016FCFE214DF22D30FDF711FC03214DF235
:105A40002E30FDF70CFC10214DF22F30FDF707FC36
:105A500003214DF23030FDF702FC33214DF231309D
:105A6000FDF7FDFB03214DF23230FDF7F8FB6D2110
:105A70004DF23330FDF7F3FB00214FF45440FDF7B6
:105A8000EEFB33214DF20140FDF7E9FB00214DF221
:105A90000240FDF7E4FB34214DF20340FDF7DFFB4C
:105AA00000214DF20440FDF7DAFB3A214DF20540AA
:105AB000FDF7D5FB00214DF20640FDF7D0FB4A2152
:105AC0004DF20740FDF7CBFB00214DF20840FDF7FA
:105AD000C6FB5C214DF20940FDF7C1FB00214DF2F0
